{
 "cells": [
  {
   "cell_type": "markdown",
   "metadata": {},
   "source": [
    "## Comment:\n",
    "\n",
    "I used functions from seminars (with some modificaions regarding inputs/outputs). Also I dedicated one cell for all imports and one cell for all functions, so then I could present outputs in more convenient (at least I believe so :) ) form."
   ]
  },
  {
   "cell_type": "markdown",
   "metadata": {},
   "source": [
    "### 0.0 ) Make imports and define functions (from seminars with Yash)"
   ]
  },
  {
   "cell_type": "code",
   "execution_count": 139,
   "metadata": {},
   "outputs": [],
   "source": [
    "#Defining Libraries:\n",
    "\n",
    "import hashlib\n",
    "import base58\n",
    "import os\n",
    "import hashlib\n",
    "import ecdsa\n",
    "import binascii\n",
    "import bitcoin\n",
    "from ecdsa import SigningKey, SECP256k1\n",
    "from prettytable import PrettyTable"
   ]
  },
  {
   "cell_type": "code",
   "execution_count": 140,
   "metadata": {},
   "outputs": [],
   "source": [
    "# Function for printing metadata in readable format\n",
    "def print_metadata(metadata):\n",
    "    for idx, data in enumerate(metadata):\n",
    "        print('Data entry #', idx + 1)\n",
    "        print('''\\t\\tPrivate Key: {}\\n\n",
    "               Public Key: {}\\n\n",
    "               Compressed_Key: {}\\n\n",
    "               Main Address: {}\\n\n",
    "               Testnet Address: {}\\n'''.format(data[0],\n",
    "                                             data[1],\n",
    "                                             data[2],\n",
    "                                             data[3],\n",
    "                                             data[4]))\n",
    "\n",
    "    print()\n",
    "# Tesnet address generation and basic functions (hashing, etc)\n",
    "\n",
    "class variableInteger():    \n",
    "    def reverse_string_in_pair(a_str_ip):\n",
    "        i = 0\n",
    "        rev_a = []\n",
    "        while i != len(a_str_ip):\n",
    "            #print(a[i] + a[i+1])\n",
    "            temp_value = a_str_ip[i] + a_str_ip[i+1]\n",
    "            rev_a.append(temp_value)\n",
    "            i = i + 2\n",
    "        rev_a.reverse()\n",
    "        return ''.join(rev_a)\n",
    "\n",
    "    def padding(b):\n",
    "        if int(len(b) % 2) == 0:\n",
    "            return b\n",
    "        else:\n",
    "            return '0' + b\n",
    "\n",
    "    def variable_integer(a):\n",
    "        \n",
    "        temp = int(len(a)/2)\n",
    "            \n",
    "        if temp <= int('0xfc',16):\n",
    "            return hex(temp)[2:]\n",
    "        elif temp > int('0xfc',16) and temp <= int('0xffff',16):\n",
    "            return 'fd' +  reverse_string_in_pair(padding(hex(temp)[2:]))\n",
    "        elif temp > int('0xffff',16) and temp <= int('0xffffffff',16):\n",
    "            return 'fe' + reverse_string_in_pair(padding(hex(temp)[2:]))\n",
    "        elif temp > int('0xffffffff',16) and temp <= int('0xffffffffffffffff',16):\n",
    "            return 'ff' + reverse_string_in_pair(padding(hex(temp)[2:]))\n",
    "\n",
    "        \n",
    "#Defining Function For Hashing: 1. Sha256 and 2. Ripemd160\n",
    "def hashing(a):\n",
    "    first_sha256 = hashlib.sha256(a)\n",
    "    ripemd160 = hashlib.new(\"ripemd160\")\n",
    "    ripemd160.update(first_sha256.digest())\n",
    "    return_0 = ripemd160.digest()\n",
    "    return_1 = bytes.fromhex(\"00\") + ripemd160.digest()\n",
    "    return_2 = bytes.fromhex(\"6f\") + ripemd160.digest()\n",
    "    return return_0, return_1, return_2\n",
    "\n",
    "#Function for Checksum\n",
    "def checksum(b):\n",
    "    checksum_full = hashlib.sha256(hashlib.sha256(b).digest()).digest()\n",
    "    new_checksum = checksum_full[:4]\n",
    "    return b + new_checksum\n",
    "\n",
    "#Function to convert to base58    \n",
    "def to_base58(c):\n",
    "    return base58.b58encode(c).decode('utf-8')\n",
    "\n",
    "def compressed_key(d):\n",
    "    a = d.hex()\n",
    "\n",
    "    if a[-1] == '0' or a[-1] == '2' or a[-1] == '4' or a[-1] == '6' or a[-1] == '8' or a[-1] == 'a' or a[-1] == 'c' or a[-1] == 'e':\n",
    "        return bytes.fromhex(\"02\") + d\n",
    "    \n",
    "    else:\n",
    "        return bytes.fromhex(\"03\") + d\n",
    "    \n",
    "def generate_address(print_output = True):\n",
    "    \n",
    "    #generating Random number of 32 bytes\n",
    "    private_key = os.urandom(32).hex()\n",
    "    private_key_from_hex = bytes.fromhex(private_key)\n",
    "\n",
    "    #Keeping same private key, Generating Public Key\n",
    "    import ecdsa # pip install ecdsa\n",
    "    sk = ecdsa.SigningKey.from_string(private_key_from_hex, curve = ecdsa.SECP256k1) \n",
    "\n",
    "\n",
    "    #actual publickey to verify messages that singed using own pvt key\n",
    "    verification_key = sk.verifying_key\n",
    "    #making Public Key:\n",
    "    public_key = bytes.fromhex(\"04\") + verification_key.to_string()\n",
    "    compressed_public_key = compressed_key(verification_key.to_string())\n",
    "    compressed_public_key_hex = compressed_public_key.hex()[:66]\n",
    "    #Converting public key to address:\n",
    "    decoded_pubkey, mainnet_pubkey, testnet_pubkey = hashing(public_key)\n",
    "\n",
    "    #DECODED PUBLIC KEY WILL BE REQUIRED\n",
    "    #checksum:\n",
    "    checksum_main_pubkey = checksum(mainnet_pubkey)\n",
    "    checksum_test_pubkey = checksum(testnet_pubkey)\n",
    "\n",
    "\n",
    "    main_address = to_base58(checksum_main_pubkey)\n",
    "    test_address = to_base58(checksum_test_pubkey)\n",
    "\n",
    "\n",
    "    if print_output:\n",
    "        x = PrettyTable()\n",
    "        x.field_names = [\"Discription\", \"Value\"]\n",
    "        x.add_row([\"Private Key, hex\", private_key])\n",
    "        x.add_row([\"Public Key, hex\", public_key.hex()])\n",
    "        x.add_row([\"Compressed Public Key, hex\", compressed_public_key_hex])\n",
    "        x.add_row([\"MainNet Address, base58\", main_address])\n",
    "        x.add_row([\"Testnet Address, base58\", test_address])\n",
    "        print(x)\n",
    "    return(private_key, public_key.hex(), compressed_public_key_hex, main_address, test_address)\n",
    "\n",
    "\n",
    "\n",
    "\n",
    "# Multisig generation \n",
    "\n",
    "def public_to_test(a):\n",
    "    decoded_address = base58.b58decode(scriptaddress)\n",
    "    address_1 = decoded_address[1:-4]\n",
    "    hex_address = bytes.fromhex(\"C4\") + address_1\n",
    "    checksum_test_multsig = checksum(hex_address)\n",
    "    test_address = to_base58(checksum_test_multsig)\n",
    "    return test_address\n",
    "\n",
    "\n",
    "# Double hash\n",
    "\n",
    "def doublehash256(fname, lname): \n",
    "    str_ = fname + lname\n",
    "    temp_hash = hashlib.sha256(str_.encode('utf-8')).digest()\n",
    "    hash2 = hashlib.sha256(temp_hash).digest()\n",
    "    return str(binascii.hexlify(hash2),\"ascii\")\n",
    "\n",
    "\n",
    "\n",
    "# Generate Transaction\n",
    "\n",
    "def doublehash256_txid(a): \n",
    "    temp_bin = binascii.unhexlify(a)\n",
    "    temp_hash = hashlib.sha256(temp_bin).digest()\n",
    "    hash2 = hashlib.sha256(temp_hash).digest()\n",
    "    return str(binascii.hexlify(hash2),\"ascii\")\n",
    "\n",
    "def bytewise_reverse(a):\n",
    "    i = 0\n",
    "    rev_a = []\n",
    "    while i != len(a):\n",
    "        temp_value = a[i] + a[i+1]\n",
    "        rev_a.append(temp_value)\n",
    "        i = i + 2\n",
    "    rev_a.reverse()\n",
    "    return ''.join(rev_a)\n",
    "\n",
    "def bitcoin_satoshi_rev_hex(btc):\n",
    "    temp = float(btc) * (10**8)\n",
    "    temp_1 = hex(int(temp))[2:]\n",
    "    temp_2 = bytewise_reverse(str(temp_1).zfill(16))\n",
    "    return temp_2\n",
    "\n",
    "def tx_inputs_tx_id():\n",
    "    previous_tx_hash = input(\"Enter Reference TxId: \")\n",
    "    previous_tx_hash_reversed = bytewise_reverse(previous_tx_hash)\n",
    "    previous_output_index = input(\"Enter Previous output index: \")\n",
    "    previous_output_index = bytewise_reverse('{:08x}'.format(int(previous_output_index)))\n",
    "    return previous_tx_hash_reversed + previous_output_index # + place_holder() +  'ffffffff'\n",
    "\n",
    "def place_holder():\n",
    "    previous_place_holder = input('''Enter Output Script \n",
    "    OP_HASH160(public_key)=RIPEMD160(SHA256(public_key)): ''')\n",
    "    size_receiver_1 = hex(int(len(previous_place_holder)/2))[2:]\n",
    "    script_Pubkey_prev_op = '76' + 'a9' + size_receiver_1 + previous_place_holder + '88' + 'ac'\n",
    "    script_len_1 = hex(int(len(script_Pubkey_prev_op)/2))[2:]\n",
    "    return script_len_1 + script_Pubkey_prev_op\n",
    "\n",
    "def bytes_padding(temp_no):\n",
    "    if len(temp_no)/2 != 0:\n",
    "        return '0' + temp_no\n",
    "    else:\n",
    "        return temp_no\n",
    "\n",
    "def tx_outputs(i):\n",
    "    receiver = input(\"Enter Receiver's Address: \")\n",
    "    value = input(\"Enter Value in BTC (0.0) to send:\")\n",
    "    value_in_hex_NYB = bitcoin_satoshi_rev_hex(value)\n",
    "    receiver_address = base58.b58decode(receiver).hex()[2:-8]\n",
    "    size_receiver = hex(int(len(receiver_address)/2))[2:]\n",
    "    locking_Script = '76' + 'a9' + size_receiver + receiver_address + '88' + 'ac'\n",
    "    script_len_2 = hex(int(len(locking_Script)/2))[2:]\n",
    "    return value_in_hex_NYB + script_len_2 + locking_Script\n",
    "    \n",
    "    \n",
    "def op_return(i):\n",
    "    value_return = '0'*16\n",
    "    data = input(\"Enter Data to send: \")\n",
    "    text_from_bytes = binascii.b2a_hex(data.encode(\"utf-8\")).decode()\n",
    "    len_data = hex(int(len(text_from_bytes)/2))[2:]\n",
    "    partial_data =  '6a'+ bytes_padding(len_data) + text_from_bytes\n",
    "    return value_return + bytes_padding(hex(int(len(partial_data)/2))[2:]) + partial_data\n",
    "    \n",
    "def pushdata(len_r,len_s):\n",
    "    if len_r == '20' and len_s == '20':\n",
    "        return str(47)    \n",
    "    elif len_r == '20' or len_s == '21':\n",
    "        return str(48)\n",
    "    elif len_r == '21' or len_s == '20':\n",
    "        return str(48)\n",
    "    else:\n",
    "        return str(49)\n",
    "    \n",
    "def pubkey_opcode(a):\n",
    "    return hex(int(int(len(a))/2))[2:]\n",
    "    \n",
    "def generate_raw_transaction(print_output = True):\n",
    "    #Creating Raw Transaction for Double Hash\n",
    "    #P2PKH\n",
    "    version = 1\n",
    "    version = bytewise_reverse('{:08d}'.format(int(version)))\n",
    "\n",
    "    #_________________TALKING PREVIOUS TRANSACTIONS_________________\n",
    "    utxo_ip = '01'\n",
    "    prev_tx_datas = utxo_ip + tx_inputs_tx_id()\n",
    "\n",
    "\n",
    "    #___________________________________________________________________\n",
    "    utxo_output = input(\"Enter number of outputs, for example, 2: \")\n",
    "    tx_output = ''\n",
    "    for i in range(0, int(utxo_output)):\n",
    "            tx_output = tx_outputs(i) + tx_output\n",
    "    next_output_data = '0' + utxo_output + tx_output\n",
    "    #____________________________________________________________________________\n",
    "\n",
    "    locktime = '00000000'\n",
    "    SigHashCode = '01000000'\n",
    "\n",
    "\n",
    "    #Creating Raw transaction:\n",
    "    print(\n",
    "    \"\"\"\n",
    "    Raw_Transaction for 1 input Data and {} Output\n",
    "    \"\"\".format(tx_output))\n",
    "    #Printing Input PreSignature:\n",
    "    \n",
    "    raw_transaction = version + prev_tx_datas + next_output_data + locktime + SigHashCode\n",
    "    if print_output:\n",
    "        print(f'''\n",
    "        Version {version}\n",
    "        Previous data: {prev_tx_datas}\n",
    "        Next output data: {next_output_data} \n",
    "        Locktime: {locktime} \n",
    "        SigHashCode: {SigHashCode}\n",
    "        ''')\n",
    "        print(raw_transaction)\n",
    "    return(raw_transaction)    \n",
    "\n",
    "\n",
    "# Functions that were used for sending bitcoins\n",
    "\n",
    "def digital_signature(raw_tx):\n",
    "    unsigned = raw_tx\n",
    "    \n",
    "    temp_bin = binascii.unhexlify(unsigned)\n",
    "    temp_hash = hashlib.sha256(temp_bin).digest()\n",
    "    tx_hash = hashlib.sha256(temp_hash).digest()\n",
    "    private_key = input(\"Enter Private Key: \")\n",
    "    signingkey = ecdsa.SigningKey.from_string(bytes.fromhex(private_key), curve=ecdsa.SECP256k1)\n",
    "    SIG = signingkey.sign_digest(tx_hash, sigencode=ecdsa.util.sigencode_der_canonize)   \n",
    "    temp_sig = str(binascii.hexlify(SIG),'ascii')\n",
    "    return temp_sig     \n",
    "\n",
    "def redeem_place_holder():\n",
    "    redeemScript = input(\"Enter redeem Script: \")\n",
    "    return variableInteger.variable_integer(redeemScript) + redeemScript\n",
    "\n",
    "def reverse_string_in_pair(a_str_ip):\n",
    "    i = 0\n",
    "    rev_a = []\n",
    "    while i != len(a_str_ip):\n",
    "        temp_value = a_str_ip[i] + a_str_ip[i+1]\n",
    "        rev_a.append(temp_value)\n",
    "        i = i + 2\n",
    "    rev_a.reverse()\n",
    "    return ''.join(rev_a)\n",
    "\n",
    "def create_new_transaction_3(tx_id, publickey, private_key, n_out, n_data_out):\n",
    "\n",
    "    version_number = '01000000'\n",
    "    number_inputs = '01'\n",
    "    previous_transaction = tx_id\n",
    "    previous_transaction = reverse(previous_transaction)\n",
    "    \n",
    "    previous_output = '0'\n",
    "    output_script = '0' + previous_output + '000000'\n",
    "    previous_PKH = input(\"Enter previous PKH: \")\n",
    "    script = '1976a914' + previous_PKH + '88ac'\n",
    "    sequence = 'ffffffff'\n",
    "    tx_ip = version_number + number_inputs + previous_transaction + output_script + script + sequence\n",
    "\n",
    "\n",
    "    #User_output:\n",
    "    Outputs = str(n_out)\n",
    "    #utxo outputs\n",
    "    utxo_output = str(1) # the same all time -> hardcoded\n",
    "    tx_output = ''\n",
    "    for i in range(0, int(utxo_output)):\n",
    "            tx_output = tx_outputs(i) + tx_output\n",
    "    #data output\n",
    "    data_output = str(n_data_out)\n",
    "    op_ret = ''\n",
    "    for i in range(0, int(data_output)):\n",
    "            op_ret = op_return(i) + op_ret\n",
    "    out_tx = '0' + Outputs + tx_output + op_ret + '0'*8 + '01000000'\n",
    "\n",
    "    #Final Transaction:\n",
    "    raw_transaction = tx_ip + out_tx\n",
    "    print('''Raw transaction: ''', raw_transaction)\n",
    "\n",
    "    #DIGITAL SIGNATURE\n",
    "    unsigned = raw_transaction\n",
    "\n",
    "    temp_bin = binascii.unhexlify(unsigned)\n",
    "    temp_hash = hashlib.sha256(temp_bin).digest()\n",
    "    hash2 = hashlib.sha256(temp_hash).hexdigest()\n",
    "    tx_hash = hashlib.sha256(temp_hash).digest()\n",
    "\n",
    "    signingkey = ecdsa.SigningKey.from_string(bytes.fromhex(private_key), curve=ecdsa.SECP256k1)\n",
    "    SIG = signingkey.sign_digest(tx_hash, sigencode=ecdsa.util.sigencode_der_canonize)\n",
    "\n",
    "    print(\"\\n\\nDigital Signature: \", str(binascii.hexlify(SIG),'ascii'))\n",
    "\n",
    "    #Generating_SigScript:\n",
    "    DER_input =  str(binascii.hexlify(SIG),'ascii')\n",
    "    header = DER_input[0:2]\n",
    "    Sig_Length = DER_input[2:4]\n",
    "    r_integer = DER_input[4:6]\n",
    "    r_length = DER_input[6:8]\n",
    "    r = DER_input[8:8 + 2 * int(r_length,16)]\n",
    "    s_integer = DER_input[8 + 2 * int(r_length,16): 10 + 2 * int(r_length,16)]\n",
    "    s_length = DER_input[10 + 2 * int(r_length,16): 12 + 2 * int(r_length,16)]\n",
    "    s = DER_input[12 + 2 * int(r_length,16):]\n",
    "\n",
    "    pushdata_opcode = pushdata(r_length, s_length)\n",
    "    sighash_code = '01'\n",
    " \n",
    "    pubkey_pushdata_opcode = pubkey_opcode(publickey)\n",
    "\n",
    "    final_SigScript = pushdata_opcode + header + Sig_Length + r_integer + r_length + r + s_integer + s_length + s + sighash_code + pubkey_pushdata_opcode + publickey\n",
    "    SigScript = pubkey_opcode(final_SigScript) + final_SigScript\n",
    "    print(\"\\nSigScript(hex): \",SigScript,\"\\n\\n\\n\")\n",
    "\n",
    "    #Broadcasting_Transaction:\n",
    "    broadcasting_tx = version_number + number_inputs + previous_transaction + output_script + SigScript + sequence + out_tx [:-8]\n",
    "    print('''Transaction to broadcast: ''', broadcasting_tx)\n",
    "\n",
    "\n",
    "#----------------------- from here all is related to point 5\n",
    "class variableInteger5:\n",
    "    def reverse_string_in_pair(a_str_ip):\n",
    "        i = 0\n",
    "        rev_a = []\n",
    "        while i != len(a_str_ip):\n",
    "            #print(a[i] + a[i+1])\n",
    "            temp_value = a_str_ip[i] + a_str_ip[i+1]\n",
    "            rev_a.append(temp_value)\n",
    "            i = i + 2\n",
    "        rev_a.reverse()\n",
    "        return ''.join(rev_a)\n",
    "    \n",
    "    def padding(b):\n",
    "        if int(len(b) % 2) == 0:\n",
    "            return b\n",
    "        else:\n",
    "            return '0' + b\n",
    "    \n",
    "    def variable_integer(a):\n",
    "        if type(a) == int:\n",
    "            temp = a\n",
    "        else:\n",
    "            temp = int(len(a)/2)\n",
    "        \n",
    "        if temp <= int('0xfc',16):\n",
    "            return variableInteger5.padding(hex(temp)[2:])\n",
    "        elif temp > int('0xfc',16) and temp <= int('0xffff',16):\n",
    "            return 'fd' +  variableInteger5.reverse_string_in_pair(variableInteger5.padding(hex(temp)[2:]))\n",
    "        elif temp > int('0xffff',16) and temp <= int('0xffffffff',16):\n",
    "            return 'fe' + variableInteger5.reverse_string_in_pair(variableInteger5.padding(hex(temp)[2:]))\n",
    "        elif temp > int('0xffffffff',16) and temp <= int('0xffffffffffffffff',16):\n",
    "            return 'ff' + variableInteger5.reverse_string_in_pair(variableInteger5.padding(hex(temp)[2:]))\n",
    "\n",
    "def tx_outputs_5(c):\n",
    "    receiver = input(\"Enter Receiver's Address {}: \".format(c+1))\n",
    "    if receiver[0] == 'm' or receiver[0] == 'n': \n",
    "        value = input(\"Enter Value in BTC (0.0) to send {}:\".format(receiver))\n",
    "        value_in_hex_NYB = bitcoin_satoshi_rev_hex(value)\n",
    "        receiver_address = base58.b58decode(receiver).hex()[2:-8]\n",
    "        locking_Script = '76' + 'a9' + variableInteger5.variable_integer(receiver_address) + receiver_address + '88' + 'ac'\n",
    "        script_len_2 = variableInteger5.variable_integer(locking_Script)\n",
    "        return value_in_hex_NYB + script_len_2 + locking_Script\n",
    "    \n",
    "    elif receiver[0] == '2':\n",
    "        value = input(\"Enter Value in BTC (0.0) to send {}:\".format(receiver))\n",
    "        value_in_hex_NYB = bitcoin_satoshi_rev_hex(value)\n",
    "        receiver_address = base58.b58decode(receiver).hex()[2:-8]\n",
    "        locking_Script = 'a9' + variableInteger5.variable_integer(receiver_address) + receiver_address + '87'\n",
    "        script_len_2 = variableInteger5.variable_integer(locking_Script)\n",
    "        return value_in_hex_NYB + script_len_2 + locking_Script    \n",
    "    \n",
    "    \n",
    "def create_new_transaction_5():\n",
    "\n",
    "    sig_loop = str(2) # hardcoded\n",
    "    #Making Raw_Transaction: \n",
    "    #input Basic\n",
    "    version = '01000000'\n",
    "\n",
    "    #input_multi_Signature:\n",
    "    input_ms = '01' + tx_inputs_tx_id()\n",
    "    redeem_Script = redeem_place_holder()\n",
    "    tx_input_value = input_ms + redeem_Script + 'f'*8\n",
    "\n",
    "    #output\n",
    "    utxo_output = str(1) # hardcoded\n",
    "    tx_output = ''\n",
    "    for i in range(0, int(utxo_output)):\n",
    "            tx_output = tx_outputs_5(i) + tx_output\n",
    "    next_output_data =  variableInteger5.variable_integer(int(utxo_output)) + tx_output\n",
    "\n",
    "    locktime = '00000000'\n",
    "    SigHashCode = '01000000'\n",
    "\n",
    "    tx_to_sign = version + tx_input_value + next_output_data + locktime + SigHashCode\n",
    "\n",
    "    signatures = ''\n",
    "\n",
    "    for i in range(0,int(sig_loop)):\n",
    "        signature_temp = digital_signature(tx_to_sign) + '01'\n",
    "        signature_temp_2 = variableInteger5.variable_integer(signature_temp) + signature_temp\n",
    "        signatures = signatures + signature_temp_2\n",
    "\n",
    "    SigScript_places = '00' + signatures + '4c' + redeem_Script \n",
    "    SigScript =  variableInteger5.variable_integer(SigScript_places) + SigScript_places\n",
    "\n",
    "    Broadcasting_transaction = version + input_ms + SigScript + 'f'*8 + next_output_data + locktime\n",
    "    print('''Transaction to broadcast: ''', Broadcasting_transaction)"
   ]
  },
  {
   "cell_type": "markdown",
   "metadata": {},
   "source": [
    "### 0.1) Testnet address generetation"
   ]
  },
  {
   "cell_type": "code",
   "execution_count": 141,
   "metadata": {},
   "outputs": [
    {
     "name": "stdout",
     "output_type": "stream",
     "text": [
      "Testnet adresses:\n",
      "\n",
      "\n",
      "Test address_1  :  mq7HfkJ4A2W6kBPD4ih5fFQtkGoD1mcpCF\n",
      "Test address_2  :  muXBqnup9A3xScqLohymaX7AxZYz1oAvEB\n",
      "Test address_3  :  mxVPWVJapiv5pGZ4PPgccTpMcS7G9NsyAy\n",
      "\n",
      "-----------------------------------\n",
      "\n",
      "Metadata:\n",
      "Data entry # 1\n",
      "\t\tPrivate Key: 83c818cd2b883d38cec5a41d73fff8b5de1369310666391d51f6b187ba3dc388\n",
      "\n",
      "               Public Key: 0447cec9869c73bfbb0d827abd4aca31580ea8ac485664584af6d3fc457f8e7022b44424b5a62111c14372152f4c8457b96a5e2180760d614f09d1d71acde2e664\n",
      "\n",
      "               Compressed_Key: 0247cec9869c73bfbb0d827abd4aca31580ea8ac485664584af6d3fc457f8e7022\n",
      "\n",
      "               Main Address: 1AbLNhD5M14qy4ubM9ihqLCZtHCW6dHQi2\n",
      "\n",
      "               Testnet Address: mq7HfkJ4A2W6kBPD4ih5fFQtkGoD1mcpCF\n",
      "\n",
      "Data entry # 2\n",
      "\t\tPrivate Key: c151c9ff4f01681cc9c4aa6a8c83e38b1dfbe00ec8dd3d992b3bb9f6cba02513\n",
      "\n",
      "               Public Key: 04148a66d28626a869c6b51f777296420871d33f3fb5dafb9ca2cf595183f4d5c2891e64346ee3361768f5af0fcb800d2c8492fb92c1e47e30928ff82fda021a8b\n",
      "\n",
      "               Compressed_Key: 03148a66d28626a869c6b51f777296420871d33f3fb5dafb9ca2cf595183f4d5c2\n",
      "\n",
      "               Main Address: 1F1EYjpqL8chfWMj691Pkbtr6ZxH5HZvhu\n",
      "\n",
      "               Testnet Address: muXBqnup9A3xScqLohymaX7AxZYz1oAvEB\n",
      "\n",
      "Data entry # 3\n",
      "\t\tPrivate Key: 394b3dbeb990f08590f6898e04a59aadd4f32f09968a3063a1183cfbcd114075\n",
      "\n",
      "               Public Key: 0476b89fcb368275796690e993cacac3e9be4df22ffbf19d67b7b1fda5fbff187720a8e2167abdb66daa91ffae074240d73335982ec11307c165c5e163b5702b33\n",
      "\n",
      "               Compressed_Key: 0376b89fcb368275796690e993cacac3e9be4df22ffbf19d67b7b1fda5fbff1877\n",
      "\n",
      "               Main Address: 1HySDSDc1hUq3A5SfpiEnYc2kSWZF4eFok\n",
      "\n",
      "               Testnet Address: mxVPWVJapiv5pGZ4PPgccTpMcS7G9NsyAy\n",
      "\n",
      "\n"
     ]
    }
   ],
   "source": [
    "address_data_1 = generate_address(print_output = False)\n",
    "address_data_2 = generate_address(print_output = False)\n",
    "address_data_3 = generate_address(print_output = False)\n",
    "\n",
    "address_1 = address_data_1[-1]\n",
    "address_2 = address_data_2[-1]\n",
    "address_3 = address_data_3[-1]\n",
    "\n",
    "address_data_list = [address_data_1, address_data_2, address_data_3]\n",
    "print('Testnet adresses:\\n')\n",
    "print()\n",
    "print('Test address_1  : ', address_1)\n",
    "print('Test address_2  : ', address_2)\n",
    "print('Test address_3  : ', address_3)\n",
    "\n",
    "print()\n",
    "print('-----------------------------------')\n",
    "print()\n",
    "print('Metadata:')\n",
    "print_metadata(address_data_list)"
   ]
  },
  {
   "cell_type": "markdown",
   "metadata": {},
   "source": [
    "### 0.2) MultiSignature address generation"
   ]
  },
  {
   "cell_type": "code",
   "execution_count": 142,
   "metadata": {},
   "outputs": [],
   "source": [
    "m = 3 # Max\n",
    "n = 2 # Min\n",
    "\n",
    "pub_keys = []\n",
    "for i in range(0,m):\n",
    "    temp = address_data_list[i][1].format(i+1,m)\n",
    "\n",
    "    pub_keys.append(temp)"
   ]
  },
  {
   "cell_type": "code",
   "execution_count": 143,
   "metadata": {},
   "outputs": [
    {
     "name": "stdout",
     "output_type": "stream",
     "text": [
      "MultiSig Address:  3QPHFmvE9rLXb33sgnptxXktbP6zPc8fU9\n",
      "MultiSig Testnet Address:  2NFwVKWrFmJqsnpgRMvSmaUk9ojKAGbtv9C\n",
      "\n",
      "Redeem Script: 52410447cec9869c73bfbb0d827abd4aca31580ea8ac485664584af6d3fc457f8e7022b44424b5a62111c14372152f4c8457b96a5e2180760d614f09d1d71acde2e6644104148a66d28626a869c6b51f777296420871d33f3fb5dafb9ca2cf595183f4d5c2891e64346ee3361768f5af0fcb800d2c8492fb92c1e47e30928ff82fda021a8b410476b89fcb368275796690e993cacac3e9be4df22ffbf19d67b7b1fda5fbff187720a8e2167abdb66daa91ffae074240d73335982ec11307c165c5e163b5702b3353ae\n"
     ]
    }
   ],
   "source": [
    "   \n",
    "rawscript = bitcoin.mk_multisig_script(pub_keys,n)\n",
    "descript = bitcoin.deserialize_script(rawscript)\n",
    "scriptaddress = bitcoin.scriptaddr(rawscript)\n",
    "print(\"MultiSig Address: \", scriptaddress)\n",
    "\n",
    "testnet_address = public_to_test(scriptaddress)\n",
    "print(\"MultiSig Testnet Address: \", testnet_address) # this is what we need\n",
    "\n",
    "print(\"\\nRedeem Script:\", rawscript)"
   ]
  },
  {
   "cell_type": "markdown",
   "metadata": {},
   "source": [
    "### 1) (1 point) Calculate double Hash_256 of your name. Take two inputs from the user, i.e., first name and last name. Concatenate string and take SHA256(SHA256(first name_lastname))"
   ]
  },
  {
   "cell_type": "code",
   "execution_count": 144,
   "metadata": {},
   "outputs": [
    {
     "name": "stdout",
     "output_type": "stream",
     "text": [
      "Double Hash_256 of 'AlexanderShumilov' is :  bec15355352ef7685aeb80d02944e5865c702df5db0c1405a1928cd75c96a48a\n"
     ]
    }
   ],
   "source": [
    "fname = 'Alexander'\n",
    "lname = 'Shumilov'\n",
    "\n",
    "print(\"Double Hash_256 of '%s' is : \" % (fname + lname), doublehash256(fname, lname))"
   ]
  },
  {
   "cell_type": "markdown",
   "metadata": {},
   "source": [
    "### 2) (1 point) Get some testnet Bitcoins to your testnet address_1 from any source. (Best source: https://coinfaucet.eu/en/btc-testnet/) . Provide the Transaction_ID. "
   ]
  },
  {
   "cell_type": "code",
   "execution_count": 146,
   "metadata": {},
   "outputs": [
    {
     "name": "stdout",
     "output_type": "stream",
     "text": [
      "Test address_1 (from):  mq7HfkJ4A2W6kBPD4ih5fFQtkGoD1mcpCF\n",
      "Test address_2 (to):  muXBqnup9A3xScqLohymaX7AxZYz1oAvEB\n",
      "Previous PKH:  6937728711d918890eeebbbb3819be859f821fe8\n",
      "\n",
      "Transaction ID:  518c585e870a897c26af6b8a29e2c2a8dbd774071d29bfbd4c28ca0a689da01b\n"
     ]
    }
   ],
   "source": [
    "tx_id_2 = '518c585e870a897c26af6b8a29e2c2a8dbd774071d29bfbd4c28ca0a689da01b' \n",
    "pkh_2 = '6937728711d918890eeebbbb3819be859f821fe8' # to enter below\n",
    "\n",
    "# source: https://testnet-faucet.mempool.co/\n",
    "\n",
    "print('Test address_1 (from): ', address_1) # to enter below\n",
    "print('Test address_2 (to): ', address_2) # to enter below\n",
    "print('Previous PKH: ', pkh_2)\n",
    "print()\n",
    "print('Transaction ID: ', tx_id_2)"
   ]
  },
  {
   "cell_type": "markdown",
   "metadata": {},
   "source": [
    "### 3)  (2 points) Create a new transaction from address_1 and provide Transaction_ID"
   ]
  },
  {
   "cell_type": "code",
   "execution_count": 147,
   "metadata": {},
   "outputs": [
    {
     "name": "stdout",
     "output_type": "stream",
     "text": [
      "Enter previous PKH: 6937728711d918890eeebbbb3819be859f821fe8\n",
      "Enter Receiver's Address: muXBqnup9A3xScqLohymaX7AxZYz1oAvEB\n",
      "Enter Value in BTC (0.0) to send:0.0\n",
      "Enter Data to send: aa\n",
      "Raw transaction:  01000000011ba09d680aca284cbdbf291d0774d7dba8c2e2298a6baf267c890a875e588c51000000001976a9146937728711d918890eeebbbb3819be859f821fe888acffffffff0200000000000000001976a914999d11d268d59ccc2715b41d6ca5e23b5f4f177d88ac0000000000000000046a0261610000000001000000\n",
      "\n",
      "\n",
      "Digital Signature:  304402204135bc803bf03a01d4b9f07a7f345af8a724ca5bb970c1d6cb3eae5fbb6ea81602200c1f6802987e1b27ae9661d23b9e7287f5356b99b7ddb14894ccad39d423041e\n",
      "\n",
      "SigScript(hex):  8a47304402204135bc803bf03a01d4b9f07a7f345af8a724ca5bb970c1d6cb3eae5fbb6ea81602200c1f6802987e1b27ae9661d23b9e7287f5356b99b7ddb14894ccad39d423041e01410447cec9869c73bfbb0d827abd4aca31580ea8ac485664584af6d3fc457f8e7022b44424b5a62111c14372152f4c8457b96a5e2180760d614f09d1d71acde2e664 \n",
      "\n",
      "\n",
      "\n",
      "Transaction to broadcast:  01000000011ba09d680aca284cbdbf291d0774d7dba8c2e2298a6baf267c890a875e588c51000000008a47304402204135bc803bf03a01d4b9f07a7f345af8a724ca5bb970c1d6cb3eae5fbb6ea81602200c1f6802987e1b27ae9661d23b9e7287f5356b99b7ddb14894ccad39d423041e01410447cec9869c73bfbb0d827abd4aca31580ea8ac485664584af6d3fc457f8e7022b44424b5a62111c14372152f4c8457b96a5e2180760d614f09d1d71acde2e664ffffffff0200000000000000001976a914999d11d268d59ccc2715b41d6ca5e23b5f4f177d88ac0000000000000000046a02616100000000\n"
     ]
    }
   ],
   "source": [
    "# order: tx_id, public key, private key, n_outputs, n_data_outputs\n",
    "create_new_transaction_3(tx_id_2, address_data_1[1], address_data_1[0], 2, 1) "
   ]
  },
  {
   "cell_type": "code",
   "execution_count": 101,
   "metadata": {},
   "outputs": [
    {
     "name": "stdout",
     "output_type": "stream",
     "text": [
      "Test address_2 (from):  mtdDKbHP1pYnaSK8EcLn2fb9WdaterTeuX\n",
      "MultiSignature address (to):  2N239NWhsf6CVW11pdXStVFQkbVb1ojoEek\n",
      "Previous PKH: 8fc8aca999cffe5c9dee29a36dc856dd0ccd014e\n",
      "\n",
      "Transaction ID:  cda7a0b73840618aafa0e2e931b6fd2d690a7b3d82ba64d655bd51b51d21c262\n"
     ]
    }
   ],
   "source": [
    "tx_id_3 = 'cda7a0b73840618aafa0e2e931b6fd2d690a7b3d82ba64d655bd51b51d21c262'\n",
    "pkh_3 = '8fc8aca999cffe5c9dee29a36dc856dd0ccd014e'\n",
    "\n",
    "print('Test address_2 (from): ', address_2)\n",
    "print('MultiSignature address (to): ', testnet_address)\n",
    "print('Previous PKH:' , pkh_3)\n",
    "print()\n",
    "print('Transaction ID: ', tx_id_3)"
   ]
  },
  {
   "cell_type": "markdown",
   "metadata": {},
   "source": [
    "### 4) (2 points) From address_2, Send some bitcoins to your 2-of-3 MultiSignature Address."
   ]
  },
  {
   "cell_type": "code",
   "execution_count": 102,
   "metadata": {},
   "outputs": [
    {
     "name": "stdout",
     "output_type": "stream",
     "text": [
      "Enter previous PKH: 8fc8aca999cffe5c9dee29a36dc856dd0ccd014e\n",
      "Enter Receiver's Address 1: 2N239NWhsf6CVW11pdXStVFQkbVb1ojoEek\n",
      "Enter Value in BTC (0.0) to send 2N239NWhsf6CVW11pdXStVFQkbVb1ojoEek:0.0\n",
      "Raw transaction:  010000000162c2211db551bd55d664ba823d7b0a692dfdb631e9e2a0af8a614038b7a0a7cd000000001976a9148fc8aca999cffe5c9dee29a36dc856dd0ccd014e88acffffffff01000000000000000017a91460704961f7a3d8bd71cafb84b7ac900ee0393143870000000001000000\n",
      "\n",
      "\n",
      "Digital Signature:  3045022100dec027a08c772ed2eca306706ffd89c4b4a01fbcd14df603779fe8f78b9f2fc3022027f3fbf852229aedf1c40d67e37ccbec65e8652b18e5d748f94850c612204665\n",
      "\n",
      "SigScript(hex):  8b483045022100dec027a08c772ed2eca306706ffd89c4b4a01fbcd14df603779fe8f78b9f2fc3022027f3fbf852229aedf1c40d67e37ccbec65e8652b18e5d748f94850c612204665014104d4241131bbd87e96f216e7492ba4dd6a15b206700bc272ef6862c20935e1c46f115ae53175eef7affb973b6ac857983247dcfa491570412f185a5620daaf33fd \n",
      "\n",
      "\n",
      "\n",
      "Transaction to broadcast:  010000000162c2211db551bd55d664ba823d7b0a692dfdb631e9e2a0af8a614038b7a0a7cd000000008b483045022100dec027a08c772ed2eca306706ffd89c4b4a01fbcd14df603779fe8f78b9f2fc3022027f3fbf852229aedf1c40d67e37ccbec65e8652b18e5d748f94850c612204665014104d4241131bbd87e96f216e7492ba4dd6a15b206700bc272ef6862c20935e1c46f115ae53175eef7affb973b6ac857983247dcfa491570412f185a5620daaf33fdffffffff01000000000000000017a91460704961f7a3d8bd71cafb84b7ac900ee03931438700000000\n"
     ]
    }
   ],
   "source": [
    "# order: tx_id, public key, private key, n_outputs, n_data_outputs\n",
    "create_new_transaction_3(tx_id_3, address_data_2[1], address_data_2[0], 1, 0) "
   ]
  },
  {
   "cell_type": "code",
   "execution_count": 103,
   "metadata": {},
   "outputs": [
    {
     "name": "stdout",
     "output_type": "stream",
     "text": [
      "MultiSignature address (from):  2N239NWhsf6CVW11pdXStVFQkbVb1ojoEek\n",
      "Test address_1 (to):  n1GtCemVB4DpyGuMkwJi1ttkCA9FHN34Eh\n",
      "Private Key 2:  fdf927024d78f423f09101ab02d6bb09d7eef0a91ccf282489a125360cc40fe6\n",
      "Private Key 3:  98ad88e9f8cb5b0faaaa48baebd9abb920eca84b02ed008bacd6242bc8c6e7dc\n",
      "Redeem script:  5241044cb2604bafe6ab1d934bcc414388549350d23dc24cfe064cc1f6f4d47c1c86ee6feb68e9ac8301794b439b827535270ecac9077a5654d4a4283bd0135075e5fe4104d4241131bbd87e96f216e7492ba4dd6a15b206700bc272ef6862c20935e1c46f115ae53175eef7affb973b6ac857983247dcfa491570412f185a5620daaf33fd41042ed8f905c210b9982612cc6fcdc49a4b5933de7b4dd45d10afa788e251529f8634605d4bfd27567337f3041f0107898a2f6bf3b38868a323e4ca8879bd2237d053ae\n",
      "\n",
      "Transaction ID:  16e33b7828c3cfe253f0784aa1baad9b3800bc26552630657c2bdf5d68705ab7\n"
     ]
    }
   ],
   "source": [
    "tx_id_4 = '16e33b7828c3cfe253f0784aa1baad9b3800bc26552630657c2bdf5d68705ab7'\n",
    "\n",
    "print('MultiSignature address (from): ', testnet_address)\n",
    "print('Test address_1 (to): ', address_1)\n",
    "print('Private Key 2: ', address_data_2[0])\n",
    "print('Private Key 3: ', address_data_3[0])\n",
    "print('Redeem script: ', rawscript)\n",
    "print()\n",
    "print('Transaction ID: ', tx_id_4)"
   ]
  },
  {
   "cell_type": "markdown",
   "metadata": {},
   "source": [
    "### 5) (4 points) From 2-of -3 MultiSignature Address. Send some bitcoins back to address_1"
   ]
  },
  {
   "cell_type": "code",
   "execution_count": 123,
   "metadata": {},
   "outputs": [
    {
     "name": "stdout",
     "output_type": "stream",
     "text": [
      "Enter Reference TxId: 16e33b7828c3cfe253f0784aa1baad9b3800bc26552630657c2bdf5d68705ab7\n",
      "Enter Previous output index: 0\n",
      "Enter redeem Script: 5241044cb2604bafe6ab1d934bcc414388549350d23dc24cfe064cc1f6f4d47c1c86ee6feb68e9ac8301794b439b827535270ecac9077a5654d4a4283bd0135075e5fe4104d4241131bbd87e96f216e7492ba4dd6a15b206700bc272ef6862c20935e1c46f115ae53175eef7affb973b6ac857983247dcfa491570412f185a5620daaf33fd41042ed8f905c210b9982612cc6fcdc49a4b5933de7b4dd45d10afa788e251529f8634605d4bfd27567337f3041f0107898a2f6bf3b38868a323e4ca8879bd2237d053ae\n",
      "Enter Receiver's Address 1: n1GtCemVB4DpyGuMkwJi1ttkCA9FHN34Eh\n",
      "Enter Value in BTC (0.0) to send n1GtCemVB4DpyGuMkwJi1ttkCA9FHN34Eh:0.0\n",
      "Enter Private Key: fdf927024d78f423f09101ab02d6bb09d7eef0a91ccf282489a125360cc40fe6\n",
      "Enter Private Key: 98ad88e9f8cb5b0faaaa48baebd9abb920eca84b02ed008bacd6242bc8c6e7dc\n",
      "Transaction to broadcast:  0100000001b75a70685ddf2b7c6530265526bc00389badbaa14a78f053e2cfc328783be31600000000fd5e0100483045022100eed73b6758f348d053ccbc774e0af4e42189ca93f9ad23bdbc79899ed83d49da022062b13c6afc202f1ec385449d4a48db783bd6c71fbf8913851418cf13dbf12ec10148304502210097d049e2b8558672dab1e78a8b1cf19c972f9781086a3d0a267d4e153ed549bf02202bc9f18ee6afe34b90fdc30b997ffedc9a367e1f6ac628ce6adb051079ad3d42014cc95241044cb2604bafe6ab1d934bcc414388549350d23dc24cfe064cc1f6f4d47c1c86ee6feb68e9ac8301794b439b827535270ecac9077a5654d4a4283bd0135075e5fe4104d4241131bbd87e96f216e7492ba4dd6a15b206700bc272ef6862c20935e1c46f115ae53175eef7affb973b6ac857983247dcfa491570412f185a5620daaf33fd41042ed8f905c210b9982612cc6fcdc49a4b5933de7b4dd45d10afa788e251529f8634605d4bfd27567337f3041f0107898a2f6bf3b38868a323e4ca8879bd2237d053aeffffffff0100000000000000001976a914d8b9468299e9847f9a6e1db3096c893abbd03ae988ac00000000\n"
     ]
    }
   ],
   "source": [
    "create_new_transaction_5()"
   ]
  },
  {
   "cell_type": "code",
   "execution_count": 124,
   "metadata": {},
   "outputs": [
    {
     "name": "stdout",
     "output_type": "stream",
     "text": [
      "Transaction ID final:  988280cb574a2afc1bb74afb39ddba54ba60cb9e905ec9cc8475c7c59857eb0d\n"
     ]
    }
   ],
   "source": [
    "tx_id_5 = '988280cb574a2afc1bb74afb39ddba54ba60cb9e905ec9cc8475c7c59857eb0d'\n",
    "print('Transaction ID final: ', tx_id_5)"
   ]
  },
  {
   "cell_type": "code",
   "execution_count": null,
   "metadata": {},
   "outputs": [],
   "source": []
  }
 ],
 "metadata": {
  "kernelspec": {
   "display_name": "Python 3",
   "language": "python",
   "name": "python3"
  },
  "language_info": {
   "codemirror_mode": {
    "name": "ipython",
    "version": 3
   },
   "file_extension": ".py",
   "mimetype": "text/x-python",
   "name": "python",
   "nbconvert_exporter": "python",
   "pygments_lexer": "ipython3",
   "version": "3.8.5"
  }
 },
 "nbformat": 4,
 "nbformat_minor": 2
}
